{
  "contractName": "property",
  "abi": [
    {
      "constant": true,
      "inputs": [],
      "name": "investor",
      "outputs": [
        {
          "name": "",
          "type": "address"
        }
      ],
      "payable": false,
      "stateMutability": "view",
      "type": "function"
    },
    {
      "constant": true,
      "inputs": [],
      "name": "okay",
      "outputs": [
        {
          "name": "",
          "type": "uint256"
        }
      ],
      "payable": false,
      "stateMutability": "view",
      "type": "function"
    },
    {
      "constant": true,
      "inputs": [],
      "name": "avail",
      "outputs": [
        {
          "name": "",
          "type": "uint256"
        }
      ],
      "payable": false,
      "stateMutability": "view",
      "type": "function"
    },
    {
      "constant": true,
      "inputs": [],
      "name": "toke_val",
      "outputs": [
        {
          "name": "",
          "type": "uint256"
        }
      ],
      "payable": false,
      "stateMutability": "view",
      "type": "function"
    },
    {
      "constant": true,
      "inputs": [],
      "name": "buyer",
      "outputs": [
        {
          "name": "",
          "type": "address"
        }
      ],
      "payable": false,
      "stateMutability": "view",
      "type": "function"
    },
    {
      "constant": true,
      "inputs": [],
      "name": "mainwala",
      "outputs": [
        {
          "name": "",
          "type": "address"
        }
      ],
      "payable": false,
      "stateMutability": "view",
      "type": "function"
    },
    {
      "constant": true,
      "inputs": [],
      "name": "toke_price",
      "outputs": [
        {
          "name": "",
          "type": "uint256"
        }
      ],
      "payable": false,
      "stateMutability": "view",
      "type": "function"
    },
    {
      "constant": true,
      "inputs": [],
      "name": "builder",
      "outputs": [
        {
          "name": "",
          "type": "address"
        }
      ],
      "payable": false,
      "stateMutability": "view",
      "type": "function"
    },
    {
      "constant": true,
      "inputs": [
        {
          "name": "",
          "type": "uint256"
        }
      ],
      "name": "bahot_ids",
      "outputs": [
        {
          "name": "",
          "type": "uint256"
        }
      ],
      "payable": false,
      "stateMutability": "view",
      "type": "function"
    },
    {
      "inputs": [],
      "payable": false,
      "stateMutability": "nonpayable",
      "type": "constructor"
    },
    {
      "constant": false,
      "inputs": [
        {
          "name": "_toke_val",
          "type": "uint256"
        }
      ],
      "name": "little_prop",
      "outputs": [],
      "payable": true,
      "stateMutability": "payable",
      "type": "function"
    },
    {
      "constant": false,
      "inputs": [
        {
          "name": "room_id",
          "type": "uint256"
        }
      ],
      "name": "buy",
      "outputs": [],
      "payable": true,
      "stateMutability": "payable",
      "type": "function"
    },
    {
      "constant": false,
      "inputs": [],
      "name": "allpropsold",
      "outputs": [],
      "payable": true,
      "stateMutability": "payable",
      "type": "function"
    }
  ],
  "bytecode": "0x6080604052610fa0600655600160075561014060405190810160405280600060ff168152602001600160ff168152602001600260ff168152602001600360ff168152602001600460ff168152602001600560ff168152602001600660ff168152602001600760ff168152602001600860ff168152602001600960ff16815250600a90600a61008e929190610122565b5034801561009b57600080fd5b50336000806101000a81548173ffffffffffffffffffffffffffffffffffffffff021916908373ffffffffffffffffffffffffffffffffffffffff16021790555033600960006101000a81548173ffffffffffffffffffffffffffffffffffffffff021916908373ffffffffffffffffffffffffffffffffffffffff160217905550610199565b828054828255906000526020600020908101928215610163579160200282015b82811115610162578251829060ff16905591602001919060010190610142565b5b5090506101709190610174565b5090565b61019691905b8082111561019257600081600090555060010161017a565b5090565b90565b61075c806101a86000396000f3006080604052600436106100ba576000357c0100000000000000000000000000000000000000000000000000000000900463ffffffff16806317b87b6b146100bf5780631e0018d6146100c95780633020edde14610120578063565fee4a146101405780635bdeac421461016b578063705e3b0b146101965780637150d8ae146101c15780638ddcaa6a14610218578063c82bd1c61461026f578063d7e84fbf1461029a578063d96a094a146102f1578063e109bcb414610311575b600080fd5b6100c7610352565b005b3480156100d557600080fd5b506100de610438565b604051808273ffffffffffffffffffffffffffffffffffffffff1673ffffffffffffffffffffffffffffffffffffffff16815260200191505060405180910390f35b61013e6004803603810190808035906020019092919050505061045e565b005b34801561014c57600080fd5b50610155610580565b6040518082815260200191505060405180910390f35b34801561017757600080fd5b50610180610586565b6040518082815260200191505060405180910390f35b3480156101a257600080fd5b506101ab61058c565b6040518082815260200191505060405180910390f35b3480156101cd57600080fd5b506101d6610592565b604051808273ffffffffffffffffffffffffffffffffffffffff1673ffffffffffffffffffffffffffffffffffffffff16815260200191505060405180910390f35b34801561022457600080fd5b5061022d6105b8565b604051808273ffffffffffffffffffffffffffffffffffffffff1673ffffffffffffffffffffffffffffffffffffffff16815260200191505060405180910390f35b34801561027b57600080fd5b506102846105de565b6040518082815260200191505060405180910390f35b3480156102a657600080fd5b506102af6105e4565b604051808273ffffffffffffffffffffffffffffffffffffffff1673ffffffffffffffffffffffffffffffffffffffff16815260200191505060405180910390f35b61030f60048036038101908080359060200190929190505050610609565b005b34801561031d57600080fd5b5061033c6004803603810190808035906020019092919050505061070d565b6040518082815260200191505060405180910390f35b600960009054906101000a900473ffffffffffffffffffffffffffffffffffffffff1673ffffffffffffffffffffffffffffffffffffffff163373ffffffffffffffffffffffffffffffffffffffff161415156103ae57600080fd5b600960009054906101000a900473ffffffffffffffffffffffffffffffffffffffff1673ffffffffffffffffffffffffffffffffffffffff166108fc3073ffffffffffffffffffffffffffffffffffffffff16319081150290604051600060405180830381858888f1935050505015801561042d573d6000803e3d6000fd5b506000600681905550565b600160009054906101000a900473ffffffffffffffffffffffffffffffffffffffff1681565b806006541015151561046f57600080fd5b670de0b6b3a764000081600754020260028190555080600654036006819055506000600560009054906101000a900473ffffffffffffffffffffffffffffffffffffffff1673ffffffffffffffffffffffffffffffffffffffff1614151561053c576000809054906101000a900473ffffffffffffffffffffffffffffffffffffffff1673ffffffffffffffffffffffffffffffffffffffff166108fc6002549081150290604051600060405180830381858888f1935050505015801561053a573d6000803e3d6000fd5b505b33600160006101000a81548173ffffffffffffffffffffffffffffffffffffffff021916908373ffffffffffffffffffffffffffffffffffffffff16021790555050565b60045481565b60065481565b60035481565b600560009054906101000a900473ffffffffffffffffffffffffffffffffffffffff1681565b600960009054906101000a900473ffffffffffffffffffffffffffffffffffffffff1681565b60025481565b6000809054906101000a900473ffffffffffffffffffffffffffffffffffffffff1681565b61019060065411151561061b57600080fd5b61019060065403600681905550670de0b6b3a764000061019060075402026004819055506000600560009054906101000a900473ffffffffffffffffffffffffffffffffffffffff1673ffffffffffffffffffffffffffffffffffffffff161415156106ed57600560009054906101000a900473ffffffffffffffffffffffffffffffffffffffff1673ffffffffffffffffffffffffffffffffffffffff166108fc6004549081150290604051600060405180830381858888f193505050501580156106eb573d6000803e3d6000fd5b505b600a818154811015156106fc57fe5b906000526020600020016000905550565b600a8181548110151561071c57fe5b9060005260206000200160009150905054815600a165627a7a723058200eb67057ede6b8b34befcba0f84a67442fbc7fd6ad7b0743cb62ba0382bf0ce00029",
  "source": "pragma solidity ^0.4.19;\ncontract property {\n  address public builder;\n  address public investor;\n  //address public seller;\n  uint public toke_price; //conv ke baad\n  uint public toke_val; //sqft mein\n  uint public okay; //selling price of house\n  address public buyer;\n  //uint public latestprice; //pata_nahi_kyu \n  uint public avail=4000; //sqft mein\n  uint cf=1;\n  /*\n  struct kuch_toh_id_type {\n    uint  value;\n    uint sqft;\n }*/\n \n uint room_ids;\n address public mainwala;\n \n  uint [] public bahot_ids = [0,1,2,3,4,5,6,7,8,9];\n  //function Property()\n  constructor() public {\n    builder = msg.sender;\n    mainwala=msg.sender;\n\n  }\n \n  function little_prop(uint _toke_val) public payable{\n    require(avail>=_toke_val);\n    \n    toke_price = cf * _toke_val * 1 ether; //1000000000000000000;\n    avail = avail - _toke_val;\n    if (buyer != 0x0) {\n      builder.transfer(uint(toke_price));\n    }\n    //builder.transfer(uint(toke_price));\n    investor = msg.sender;\n \n  }\n  /*\n function show() view public returns(uint[]){\n    return (bahot_ids);\n }*/\n \n  function buy(uint  room_id) public payable {\n    require(avail>400);\n    avail = avail-400;\n    okay= cf * 400 * 1 ether;\n    if (buyer != 0x0) {\n      buyer.transfer(uint(okay));\n    }\n    delete bahot_ids[room_id];\n  }\n \n  function allpropsold() restricted public payable {\n    mainwala.transfer(address(this).balance);\n    avail=0;\n  }\n \n  modifier restricted() {\t\n    require(msg.sender == mainwala);\n    _;\n  }\n}\n\n",
  "sourcePath": "/home/adi/Dev/trdp/contracts/property.sol",
  "compiler": {
    "name": "solc",
    "version": "0.4.24+commit.e67f0147.Emscripten.clang"
  },
  "schemaVersion": "2.0.0",
  "updatedAt": "2019-01-19T16:49:27.125Z"
}